:020000040800F2
:1000000000000220F15E00086D0200086F02000887
:100010007102000873020008750200080000000069
:10002000000000000000000000000000770200084F
:1000300079020008000000007B0200087D02000831
:10004000395F0008395F0008395F0008395F000830
:10005000395F0008395F0008395F0008395F000820
:10006000395F0008395F0008395F0008395F000810
:10007000395F0008395F0008395F0008395F000800
:10008000395F0008395F0008395F0008395F0008F0
:10009000395F0008395F0008395F0008395F0008E0
:1000A000395F0008395F0008395F0008395F0008D0
:1000B00079040008395F000825050008395F000849
:1000C000395F0008395F0008395F0008395F0008B0
:1000D000395F0008395F0008395F0008395F0008A0
:1000E000395F0008395F0008395F0008395F000890
:1000F000395F0008395F0008395F0008395F000880
:10010000395F0008395F000865050008395F00089D
:10011000395F0008395F0008395F0008395F00085F
:10012000395F0008395F0008395F0008395F00084F
:10013000395F0008395F0008395F0008395F00083F
:10014000395F0008395F0008395F0008395F00082F
:10015000395F0008395F0008395F0008395F00081F
:10016000395F0008395F0008395F0008395F00080F
:10017000395F0008395F0008395F0008395F0008FF
:08018000395F0008395F000837
:1001880010B5054C237833B9044B13B10448AFF3C9
:1001980000800123237010BD7804002000000000B7
:1001A80054620008084B10B51BB108490848AFF362
:1001B80000800848036803B910BD074B002BFBD02B
:1001C800BDE81040184700BF000000007C04002074
:1001D800546200087404002000000000154B002B36
:1001E80008BF134B9D46A3F5803A00218B460F4666
:1001F8001348144A121A05F0E1FE0F4B002B00D0E9
:1002080098470E4B002B00D098470020002104008F
:100218000D000D48002802D00C4805F093FF05F0AA
:10022800A5FE2000290005F084FE05F08FFE00BF22
:1002380000000800000000000000000000000000AE
:1002480078040020A40400204D61000859610008CA
:100258008462000800000020740400207804002054
:10026800A40400207047FEE7FEE7FEE7FEE77047BC
:100278007047704770470000F0B501218BB0224DE0
:10028800022003F039FB102300240227009369465B
:10029800032328468DF805308DF804708DF8064044
:1002A8008DF8074005F0E2FA3A4628460421A5F5FC
:1002B800003505F059FB0126602305A92846ADF84D
:1002C8001430ADF81660ADF82040079400F09FFB9D
:1002D8002846082100F0E7FC3146384603F030FB99
:1002E8005323ADF8083002A940F6C31328460393F8
:1002F800ADF81040ADF80A4000F0E8FA314628465B
:1003080000F079FB0BB0F0BD0004024007B50121F5
:10031800082003F0F1FA4FF47043009301238DF89D
:10032800043003220023694605488DF806308DF80D
:1003380005208DF8073005F099FA03B05DF804FB45
:10034800000C024030B585B001241C230025684606
:100358008DF800308DF801508DF802408DF803407B
:1003680002F03EFB2146204603F0EAFA5323ADF89B
:10037800043001A90B4B02934FF08040ADF80C50AC
:10038800ADF8065000F0A2FA224621464FF0804010
:1003980000F081FE21464FF0804000F02CFB05B0B4
:1003A80030BD00BF9F86010030B585B001241E23F3
:1003B800002568468DF800308DF801508DF8024010
:1003C8008DF8034002F00CFB2146042003F0B8FA34
:1003D800ADF80C50ADF806500B4D40F24733ADF870
:1003E800043001A942F20F732846029300F06EFA16
:1003F80022462146284600F04EFE2146284600F0B7
:10040800FAFA05B030BD00BF0008004030B585B02D
:1004180001243223002568468DF800308DF80150FC
:100428008DF802408DF8034002F0DAFA21460820E0
:1004380003F086FAADF80C50ADF806500A4D532378
:10044800ADF8043001A9094B0293284600F03EFAA2
:1004580022462146284600F01EFE2146284600F086
:10046800CAFA05B030BD00BF000C00409F860100ED
:1004780038B501214FF0804000F0F1FD002843D04D
:10048800224D234C2B685A1C0A2B2A6009D14FF4A1
:100498008051204805F064FA236801332360012362
:1004A8002B602368023B062B16D8DFE803F00415FF
:1004B8000715101513004FF4FA6301E04FF47A732F
:1004C8004FF400511348636005F04AFA12E04FF404
:1004D800FA73F5E70023F3E763680D4A0BB9642163
:1004E80004E0B3F5FA6F02D36FF063019160A2687C
:1004F80013446360084B62685A6301214FF08040DF
:10050800BDE8384000F0B6BD38BD00BF040000208B
:1005180094040020000C02400004004010B50121A2
:100528000B4800F09CFD90B10A4C63685A1C1E2BC6
:10053800626006D14FF48041074805F011FA0123A3
:10054800636001210248BDE8104000F093BD10BD72
:100558000008004004000020000C024010B50121F2
:100568000B4800F07CFD90B10A4CA3685A1C282B5C
:10057800A26006D14FF40041074805F0F1F90123C4
:10058800A36001210248BDE8104000F073BD10BD12
:10059800000C004004000020000C0240334B1A6895
:1005A800002142F001021A6099601A6822F08472F0
:1005B80022F480321A602E4A5A601A6882B022F4F5
:1005C80080221A60D960009101911A6842F4803241
:1005D8001A601A6802F400320192009A01320092FD
:1005E800019A1AB9009AB2F5A06FF2D11F4B1B6895
:1005F80013F4003318BF01230193019B012B05D08D
:100608001C4B4FF000629A6002B07047174B1A49B2
:100618001A6C42F080521A640A6842F480420A60F6
:100628009A689A609A6842F400429A609A6842F41A
:10063800A0529A60114A5A601A6842F080721A6091
:1006480019680A4A8901FBD50D4B40F2056119600A
:10065800936823F003039360936843F00203936065
:10066800936803F00C03082BFAD1C9E7003802405D
:100678001030002400ED00E00070004008544007EE
:10068800003C0240174A1849936803F00C03042BF6
:1006980003D0082B03D0154B18E0154B16E0506813
:1006A800536810F4800F03F03F03506814BF104ADA
:1006B8000E4AB2FBF3F30B4A5268C2F30142C0F38D
:1006C8008810013243435200B3FBF2F30B60054B31
:1006D8009B68C3F303130B441A790B68D3400B6070
:1006E800704700BF00380240100000200024F400CA
:1006F80000127A0030B5048C24F001042404240C80
:100708000484048B058CA4B2ADB224F0F304224314
:1007180025F00A0542EA031345F001059AB2294378
:100728000283018430BD30B5048C24F01004240405
:10073800240C0484058B048C25F44075A4B22D0583
:100748002D0D24F0A00444F0100445EA022242EAE8
:10075800033344EA01119BB28CB20383048430BD95
:1007680008B54D4B984206D10121084603F030F9EF
:100778000021012044E0B0F1804F06D10121084654
:1007880003F01AF90021012081E0444B984206D178
:100798000121022003F010F90021022077E0404BEC
:1007A800984206D10121042003F006F90021042013
:1007B8006DE03C4B984206D10121082003F0FCF87B
:1007C8000021082063E0384B984206D1012110200F
:1007D80003F0F2F80021102059E0344B984206D17A
:1007E8000121202003F0E8F8002120204FE0304BC1
:1007F800984209D10121022003F0EAF800210220E1
:10080800BDE8084003F0E4B82A4B984208D101211A
:100818004FF4803003F0DCF800214FF48030EFE72C
:10082800254B984208D101214FF4003003F0D0F84D
:1008380000214FF40030E3E7204B984208D1012112
:100848004FF4802003F0C4F800214FF48020D7E74C
:100858001B4B984206D10121402003F0ADF800213E
:10086800402014E0174B984206D10121802003F064
:10087800A3F8002180200AE0134B98420BD10121F4
:100888004FF4807003F098F800214FF48070BDE8B1
:10089800084003F091B808BD000001400004004082
:1008A80000080040000C0040001000400014004008
:1008B800000401400040014000440140004801405C
:1008C80000180040001C0040002000401C4A03881B
:1008D80090429BB212D002F5806290420ED0B0F1E5
:1008E800804F0BD0A2F58032904207D002F580628B
:1008F800904203D002F58062904203D14A8823F0E7
:10090800700313430F4A904208D002F58062904268
:100918001FBF23F440730A899BB2134303804B68BB
:10092800C3620B880385064B984203D003F58063A6
:10093800984201D18B7A038601238382704700BFD6
:1009480000000140001000404FF0FF3343600023D7
:1009580003800381438083727047018582827047D8
:10096800038823F070031B041B0C19430180704794
:1009780041627047C1627047406A7047008D80B21B
:100988007047038819B19BB243F0020303E023F0D8
:1009980002031B041B0C03807047038819B19BB228
:1009A80043F0040303E023F004031B041B0C03803F
:1009B8007047038819B19BB243F0800303E023F02A
:1009C80080031B041B0C03807047038823F0080373
:1009D8001B041B0C038003889BB2194301807047DA
:1009E800038823F440731B041B0C038003889BB209
:1009F800194301807047038819B19BB243F0010382
:100A080003E023F001031B041B0C03807047038CD5
:100A180023F001031B041B0C0384038C70B584882A
:100A2800028B0E8822F073021204120C23F00205C6
:100A380016438B894A882D041343104A2D0C2B43E7
:100A48009042A4B29BB203D002F5806290420ED1CC
:100A5800CA890D8A23F0080313438A8823F0040304
:100A680013434A8A24F4407415432C43A4B28A6879
:100A7800848006834263038470BD00BF0000014088
:100A8800038C23F010031B041B0C0384038C30B568
:100A98008588028B0C8822F4E6421204120C42EA82
:100AA800042223F0200394B21B048A891B0C43EA16
:100AB80002134A8843EA0213124A9042ADB29BB22B
:100AC80003D002F58062904215D123F08003CA89D1
:100AD8009BB243EA02124FF6BF7313408A8843EA77
:100AE80002130A8A25F4406545EA82054A8A45EADE
:100AF80082059BB2ADB28A688580048382630384D1
:100B080030BD00BF00000140038C23F480731B0438
:100B18001B0C0384038C30B58488828B0D8822F0EB
:100B280073021204120C23F4007315431B048A8900
:100B38001B0C43EA02234A8843EA0223124A9042E2
:100B4800A4B29BB203D002F58062904215D123F47F
:100B58000063CA899BB243EA02224FF6FF3313406F
:100B68008A8843EA02230A8A24F4405444EA021495
:100B78004A8A44EA02149BB2A4B28A6884808583B4
:100B8800C263038430BD00BF00000140038C23F41E
:100B980080531B041B0C0384038C30B58488828B20
:100BA8000D8822F4E6421204120C23F4005342EAA0
:100BB80005221B048D891B0C43EA05334D8843EA43
:100BC80005330B4DA842A4B292B29BB203D005F5EF
:100BD8008065A84205D10D8A24F4804444EA85142E
:100BE800A4B2848082838A680264038430BD00BF13
:100BF8000000014000230380438083808360838159
:100C0800C38103824382704730B5048CA5B20124A6
:100C18008C4025EA040400F11803048421F008003C
:100C280038B949084FF68F70CC582040C850C8587A
:100C38000AE00439C1F34E0148F6FF70CC58204051
:100C4800C8501202C85892B20243CA5030BD41631C
:100C5800704781637047C163704701647047038BB5
:100C680023F070031B041B0C194301837047038B8B
:100C780023F4E0431B041B0C43EA012189B20183DE
:100C88007047838B23F070031B041B0C194381836B
:100C98007047838B23F4E0431B041B0C43EA0121B8
:100CA80089B281837047038B23F008031B041B0C54
:100CB800194301837047038B23F400631B041B0C47
:100CC80043EA012189B201837047838B23F008032B
:100CD8001B041B0C194381837047838B23F4006327
:100CE8001B041B0C43EA012189B281837047038BE3
:100CF80023F004031B041B0C194301837047038B67
:100D080023F480631B041B0C43EA012189B201838D
:100D18007047838B23F004031B041B0C1943818346
:100D28007047838B23F480631B041B0C43EA012167
:100D380089B281837047038B23F080031B041B0C4B
:100D4800194301837047038BC3F30E0343EA012160
:100D580089B201837047838B23F080031B041B0C2B
:100D6800194381837047838BC3F30E0343EA012140
:100D780089B281837047038C23F002031B041B0C88
:100D8800194301847047038C23F008031B041B0CD0
:100D9800194301847047038C23F020031B041B0CA8
:100DA80043EA011189B201847047038C23F0800360
:100DB8001B041B0C43EA011189B201847047038CA0
:100DC80023F400731B041B0C43EA012189B201843C
:100DD8007047038C23F400631B041B0C43EA0121B6
:100DE80089B201847047038C23F400531B041B0C45
:100DF80043EA013189B20184704730B5048CA5B249
:100E080001248C4025EA04040484038C8A4013439B
:100E18009BB2038430BD30B5048CA5B204248C4049
:100E280025EA04040484038C8A4013439BB2038498
:100E380030BD00230122038043808280C380038168
:100E48007047406B7047806B7047C06B7047006C91
:100E58007047038B23F00C031B041B0C0383038BC9
:100E68009BB2194301837047038B23F440631B042F
:100E78001B0C0383038B9BB243EA012189B20183D4
:100E88007047F8B50C464988A288B4F800E0238971
:100E980000290CBF02260026012A0CBF02270127C1
:100EA800BEF1000F0ED1FFF725FCE188FFF7D1FF57
:100EB800314623893A46FFF736FCE188BDE8F84019
:100EC800FFF7D2BFFFF72FFCE188FFF7CDFF3146D0
:100ED80023893A46FFF70EFCE188BDE8F840FFF7A2
:100EE800B8BF838B23F00C031B041B0C8383838BF9
:100EF8009BB2194381837047838B23F440631B049F
:100F08001B0C8383838B9BB243EA012189B28183C3
:100F18007047F8B50E880B898A880D46498836B916
:100F2800FFF7E8FBE988BDE8F840FFF792BF042E19
:100F380006D1FFF7F8FBE988BDE8F840FFF794BF52
:100F4800082EB5F806C0058C1CD125F480752D0433
:100F58002D0C0584858B068CADB2B6B225F0F30551
:100F680026F4206645EA031346EA01259BB2ADB292
:100F78001A4345F48075828361460584BDE8F840CC
:100F8800FFF7AFBF25F480552D042D0C0584B0F86C
:100F98001CE0068C2EF4407726F400553F056D04BE
:100FA8003F0D6D0C47EA022745EA013547EA03334E
:100FB800ADB29BB245F48055838361460584BDE894
:100FC800F840FFF799BF0A884B8813438A88134370
:100FD800CA8813430A8913434A8913438A891343E6
:100FE8009BB2A0F84430704700230380438083807D
:100FF800C3800381438183817047B0F8443029B1AD
:101008006FEA43436FEA53439BB201E0C3F30E0315
:10101800A0F844307047838819B19BB243F00403A9
:1010280003E023F004031B041B0C838070478388B0
:1010380019B19BB243F0010303E023F001031B0441
:101048001B0C8380704781827047038A194214BF42
:10105800012000207047C94389B201827047038A82
:10106800828911EA030092B203D0114214BF012011
:1010780000207047C94389B2018270470A43A0F82B
:101088004820704783899BB20AB1194301E023EADB
:10109800010181817047FFF7F5BF838819B19BB2C1
:1010A80043F0080303E023F008031B041B0C8380B0
:1010B8007047038923F007031B041B0C0381704747
:1010C800038923F070031B041B0C19430181038956
:1010D8009BB243F007030381704738B50D46602D76
:1010E800114604464FF0010202D1FFF71CFB01E054
:1010F800FFF700FB218921F070010904090C29433D
:10110800218123899BB243F00703238138BD0389DA
:1011180023F070031B041B0C19430181704783885B
:1011280023F070031B041B0C838083889BB2194334
:1011380081807047038923F007031B041B0C03817C
:1011480003899BB2194301817047038923F0800307
:101158001B041B0C038103899BB21943018170474F
:1011680010B50489E4B221430A4342EA032399B241
:10117800018110BD10B5FFF7F3FF038923F0770352
:101188001B041B0C43F07703038110BD10B5FFF758
:10119800E7FF03899BB243F48043038110BD70B518
:1011A8000689048B058C24F44074ADB224F0030442
:1011B80025F0220526F0070624042A433604240CC9
:1011C800360C44F4807442EA0313314344F00104BA
:1011D8009DB201810483058470BD838819B19BB2D7
:1011E80043F0800303E023F080031B041B0C83807F
:1011F8007047A0F8501070474FF0204318B943F2D9
:10120800DB021A6003E043F2D20243F82020800098
:1012180000F120406FF070434360C0F8043170471C
:101228008168436841EA0302C3681A4303691A43A1
:1012380043691A4383691A43C3691A43036A1A4301
:10124800436A1A43836A30B5C46A1343026B234363
:1012580013430268920002F120420829136008BF74
:101268001368416B08BF43F040030D6808BF136063
:101278008B692B434D6843EA05138D6843EA0523C0
:10128800CD6843EA05430D69496943EA055343EAD2
:101298000163B4F5804F536010D1816B08688B6986
:1012A8000343486843EA0013886843EA002308694F
:1012B800496943EA005343EA016301E06FF0704370
:1012C800C2F8043130BD022210B542604FF480529A
:1012D8004262416B4FF40052826200230F22FF24C6
:1012E80003608360C360036143618361C361036218
:1012F800C36203630A604A608C60CA600A614A611B
:101308008B61816B0A604A608C60CA600A614A61BD
:101318008B6110BD800000F1204019B1036843F0D3
:10132800010302E00268024B13400360704700BFEC
:10133800FEFF0F0010280CBF054B064B402218215A
:1013480019605A604FF0FC329A60DA60704700BF4B
:10135800600000A0800000A0426883681343C26850
:1013680043F008031A4303691343426930B543EA5B
:101378004223C46982696168056A006843EA4233A6
:10138800A268120442EA012221680A43E168AC68B3
:1013980042EA01616A68240444EA02242A6810289F
:1013A80042EA0402EC680CBF0348044842EA0462BB
:1013B80003608160C26030BD600000A0800000A0B2
:1013C80010230360C269002343608360C360036124
:1013D80043618361FC23136053609360D360026AA6
:1013E800136053609360D360704739B110280CBF05
:1013F800074A084A136843F0040306E010280CBFA4
:10140800034A044A044B11680B401360704700BF3D
:10141800600000A0800000A0FBFF0F0039B1102879
:101428000CBF074A074A136843F0400306E0102838
:101438000CBF034A034A044B11680B401360704702
:10144800600000A0800000A0BFFF0F0010280CBFA4
:10145800014B024B58697047600000A0800000A053
:10146800054B18221A6000225A604FF0FC329A602D
:10147800DA601A61704700BFA00000A003684268E4
:10148800174943F0100343EA4223826810B543EA40
:101498004233C4680B60A2686368120442EA0322FC
:1014A80023681343E2680469406943EA02638B6076
:1014B800A2686368120442EA032223681343E268BD
:1014C80043EA0263CB6082684368120442EA03225B
:1014D80003681343C26843EA02630B6110BD00BF8F
:1014E800A00000A0C2680023036043608360FC235F
:1014F800136053609360D360026913605360936014
:10150800D3604269136053609360D3607047054BA2
:1015180018B11A6842F0040202E01968024A0A4047
:101528001A607047A00000A0FBFF0F007AB11028D6
:1015380001D10E4A08E0B0F5807F04D10C4B5A68FF
:101548001143596070470B4A536819430CE010283F
:101558006FEA010101D1054A04E0B0F5807F0CBFB4
:10156800034A044A5368194051607047600000A05C
:10157800800000A0A00000A0102801D1064B04E0C4
:10158800B0F5807F0CBF054B054B5B680B4214BF61
:1015980001200020704700BF600000A0800000A06C
:1015A800A00000A010286FEA010101D1054A04E05B
:1015B800B0F5807F0CBF044A044A53681940516053
:1015C800704700BF600000A0800000A0A00000A03D
:1015D800102801D1084B04E0B0F5807F0CBF074B01
:1015E800074B5B6813EA010004D013EAD10314BF68
:1015F80001200020704700BF600000A0800000A00C
:10160800A00000A010284FEAD10101D1054A04E04A
:10161800B0F5807F0CBF044A044A536823EA0101ED
:1016280051607047600000A0800000A0A00000A0EA
:1016380008B50121202002F0A7F900212020BDE8EB
:10164800084002F0A1B90E4B1A6822F0F00210B55A
:101658001A6090E814001968114382680A4322430B
:10166800402C1A6007D11A6822F480321A6019686F
:10167800C2680A431A601A6842F004021A6010BD70
:10168800000406500023036043608360C360704712
:10169800024A136843F004031360704700040650BD
:1016A800044B9A6822F01F029A609A681043986067
:1016B800704700BF00040650014B5860704700BFD8
:1016C80000040650024B1868C0F30320704700BF9F
:1016D80000040650054BDA6802601A6942605A69CC
:1016E80082609A69C260DB69036170470004065032
:1016F800024A936843F4807393607047000406506D
:10170800094B1A6A02609A6842601A6840F8082F02
:10171800002202F13E01013253F8211040F8041F63
:10172800332AF6D1704700BF000406500B4B0268FD
:1017380010B51A6242689A6050F8082F1A601A6841
:1017480042F004021A60002202F13E01013250F810
:10175800044F43F82140332AF6D110BD0004065047
:10176800044B1A6810B142F0080201E022F00802A6
:101778001A60704700040650054A136A09B11843F5
:1017880003E023EA000000F0FF001062704700BF8A
:1017980000040650054B10F4805F14BF1B685B6A99
:1017A800184214BF01200020704700BF00040650F3
:1017B800014BC0435862704700040650044A516AFE
:1017C800136A0B40034214BF01200020704700BF7A
:1017D80000040650C043024BC0B25862704700BFB5
:1017E8000004065008B50121402002F0CDF8002180
:1017F8004020BDE8084002F0C7B8054B1A6810B190
:1018080042F0040201E022F004021A60704700BFAF
:1018180000080650014B9868704700BF0008065042
:10182800044B1A6810B142F0080201E022F00802E5
:101838001A60704700080650024B6FEA00105860A3
:10184800704700BF00080650034B5B68184214BF7E
:1018580001200020704700BF00080650FFF7F4BFC2
:10186800C043024BC0B25860704700BF0008065022
:1018780008B50C4B98424FF0010107D14FF00070AA
:1018880002F09AF800214FF0007006E04FF08060F7
:1018980002F092F800214FF08060BDE8084002F0A5
:1018A8008BB800BF00640040036823F002030360A4
:1018B800036843F0010303604FF480334268D207A2
:1018C80001D4013BFAD1436813F0010355D08B7959
:1018D800012B03680CBF43F0800323F080030360EF
:1018E800CB79012B03680CBF43F0400323F040037E
:1018F80003600B7A012B03680CBF43F0200323F02D
:10190800200303604B7A012B03680CBF43F01003DC
:1019180023F0100303608B7A012B03680CBF43F09C
:10192800080323F008030360CB7A012B03680CBF7C
:1019380043F0040323F004030360CB788A781B0682
:1019480043EA82730A7943EA02434A7943EA025333
:101958000A88013A1343C361036823F00103036053
:101968004FF480334268D20701D5013BFAD1406871
:1019780000F0010080F00100704718467047837A34
:10198800012202FA03F3344AD2F8001241F00101AD
:1019980070B5C2F80012D2F81C12DC432140C2F81C
:1019A8001C12017BA1B9D2F80C12C68845882140C7
:1019B800C2F80C12817A483145EA064542F831509E
:1019C8000288857A8188ED0042EA0141234A515113
:1019D800027B012A15D1204A0688D2F80C124588C4
:1019E8001943C2F80C12817A483145EA064542F893
:1019F8003150C288857A8188ED0042EA0141174A50
:101A08005151C27A14491AB9D1F80422224002E08D
:101A1800D1F804221A430589C1F804220E4A2DB9C7
:101A2800D1F814522C40C1F8144206E0012D02BF2F
:101A3800D2F814121943C2F81412417B012902BFCB
:101A4800D2F81C120B43C2F81C32D2F8003223F031
:101A58000103C2F8003270BD0064004044660040D3
:101A680000238371C371037243728372C3728370DC
:101A7800C37003230371022343710123038070475A
:101A88000D4BD3F8002242F00102C3F80022D3F82C
:101A9800002222F47C5222F00E02C3F80022D3F86E
:101AA800002242EA0020C3F80002D3F8002222F004
:101AB8000102C3F80022704700640040036811B1B6
:101AC80043F4803301E023F48033036070470368F4
:101AD80099B143F080030360D0F8843143F48073F4
:101AE800C0F88431D0F8943143F48073C0F894314D
:101AF800D0F8A43143F4807312E023F0800303602C
:101B0800D0F8843123F48073C0F88431D0F894314C
:101B180023F48073C0F89431D0F8A43123F480738F
:101B2800C0F8A43170478368F0B55C01024607D459
:101B38008368180106D49368DB0005D40420F0BD3F
:101B4800002002E0012000E0022002EB0013D3F89D
:101B5800804104F00104C3F880410D7A4C7A2DB914
:101B68000E68D3F8805144EA465405E04F68D3F82C
:101B7800806145EAC70535432C43C3F880418C7A18
:101B880004F00F048C72D3F8844124F00F04C3F8D6
:101B98008441D3F884418D7A2C43C3F8844102EB05
:101BA8000012D1F80B40C2F88841D1F80F10C2F8E2
:101BB8008C11D3F8802142F00102C3F88021F0BDD6
:101BC800012908D004D3022918D182680C4B04E0FB
:101BD80082680C4B01E082680B4B1340094A934220
:101BE8000AD001D833B909E0074A934204D0044A1D
:101BF800934201D0002070470120704702207047AF
:101C0800000003100300000400030008012907D0A6
:101C180002D3022908D07047836843F0800306E0A6
:101C2800836843F4004302E0836843F4000383605D
:101C3800704700EB011310B5D3F8B04104F0040469
:101C4800E4B2147224B9D3F8B041640D146003E00F
:101C5800D3F8B041E4085460D3F8B04104F002046A
:101C68005472D3F8B44104F00F049472D3F8B43129
:101C78001B0AD37400EB0113D3F8B841D472D3F81C
:101C8800B841240A1473D3F8B841240C5473D3F818
:101C9800B841240E9473D3F8BC41D473D3F8BC4133
:101CA800240A1474D3F8BC41240C5474D3F8BC31FE
:101CB8001B0E937421B9C36843F02003C36010BDA1
:101CC800036943F02003036110BD21B9C36843F0E1
:101CD8002003C3607047036943F020030361704722
:101CE80009B9C06802E0012903D1006900F00300C6
:101CF80070470020704799B9036823F0030343F045
:101D0800010303604FF48033426802F00302012AA2
:101D180001D0013BF8D1406800F00300012828E019
:101D2800012911D1036823F0030303604FF48033C2
:101D38004268920701D0013BFAD1436813F0030FC0
:101D48000CBF012000207047022916D1036823F038
:101D5800030343F0020303604FF48033426802F048
:101D68000302022A01D0013BF8D1406800F00300C9
:101D7800022814BF00200120704700207047036824
:101D880023F0030343F002030360406800F00300FC
:101D9800831E584258417047036823F002030360CA
:101DA8004FF480334268920701D5013BFAD140686D
:101DB80080F00200C0F340007047806900F07000B6
:101DC80070478069000E70478069C0F3074070470C
:101DD80043690AB1194301E023EA010141617047EF
:101DE80011F4700F01D083690BE0CB0101D5436872
:101DF80007E00A0101D5836803E08B014CBFC36883
:101E08000369C3F313030B4214BF0120002070477A
:101E18000A4B994202D10023836170478A01C1F3BA
:101E2800130301D5C36070474A0101D503617047A8
:101E38000A014CBF83604360704700BF7000F030F8
:101E480043690B405CD0402942D010D8042933D0D4
:101E580005D8012927D0022954D1C0682FE01029BC
:101E68002CD0202930D008294CD1C06835E0B1F5F4
:101E7800006F3BD00CD8B1F5007F31D0B1F5806F41
:101E880032D0B1F5807F3DD1806900F00100704704
:101E9800B1F5803F1ED0B1F5003F1DD0B1F5004F20
:101EA80030D1406829E0806800F0013020F080706F
:101EB800003018BF01207047C06806E0006910F0C4
:101EC800030018BF012070470069C0F3C0007047C5
:101ED800006902E04068F8E74068C0F30010704706
:101EE8008069C0F340007047806906E0836913F099
:101EF800700F14BF012000207047C0F380007047A6
:101F08001846704700207047B1F5807F35D00CD84F
:101F1800082924D004D801291CD004291DD07047D1
:101F280020291FD040291FD07047B1F5006F22D05B
:101F380006D8B1F5007F20D0B1F5806F1DD070476D
:101F4800B1F5803F13D0B1F5003F12D0B1F5004F85
:101F580015D110E00A4B83607047082300E0102376
:101F6800C3607047082300E010230361704708230B
:101F780004E0102302E000238361042343607047D8
:101F88000101010008B501214FF4006001F020FDB6
:101F980000214FF40060BDE8084001F019BD436816
:101FA80081681943C36810B51943074C0368626810
:101FB80019430369194322F4FD4323F07F03027D8B
:101FC8000B431343636010BD002C014000230375CD
:101FD800036043608360C36003617047014B18600E
:101FE800704700BFA0802542014B1860704700BFB2
:101FF800002C0140024B186800F00300704700BF36
:10200800002C0140094A036810B593608168446850
:10201800D3680C43C1680C43016923F4FF6323F0C0
:10202800070321430B43D36010BD00BF002C0140C0
:102038000023036043608360C36003617047024B01
:102048001869C0B2704700BF002C014082B000235D
:102058000193034B03440193019B186802B0704736
:10206800142C01400949036810B54B6243688B6220
:10207800CB6A846823F0F702C3681C43036940698C
:10208800234303431343CB6210BD00BF002C014020
:102098004FF0FF330360002343608360C360036134
:1020A80043617047014B186B704700BF002C01401B
:1020B800014BD3F880007047002C0140014BC3F856
:1020C80080007047002C0140014B986C704700BF9E
:1020D800002C0140014B1860704700BFA0852542C5
:1020E800014B1860704700BFA4852542014B18605A
:1020F800704700BFA8852542014B1860704700BF94
:10210800AC852542014B1860704700BFAC81254261
:10211800014B1860704700BFB081254200F00100F4
:10212800024B80F001001860704700BFB48125425F
:10213800014B1860704700BFB8812542014B1860F9
:10214800704700BF8C852542044BDA6B09B11043F8
:1021580001E022EA0000D863704700BF002C01406C
:10216800014B9863704700BF002C0140034B5B6B29
:10217800034214BF01200020704700BF002C01401B
:10218800FFF7F4BF014B9863704700BF002C014074
:1021980008B501214FF0005001F00EFC00214FF06E
:1021A8000050BDE8084001F007BC30B5094D40F6C5
:1021B800FE732A68834022EA030391E8140014435B
:1021C8008A681443CA68224302FA00F01843286058
:1021D80030BD00BF0074004000230360436083608B
:1021E800C3607047064A012319B1116883400B4345
:1021F80003E01168834021EA03031360704700BFBE
:1022080000740040064A0009012319B1516883404F
:102218000B4303E05168834021EA0303536070478E
:1022280000740040044B5A6810B142F0030201E008
:1022380022F003025A6070470074004082B0002305
:102248000193054B0193019B083318440190019BAE
:10225800196002B0704700BF0074004082B00023CC
:102268000193054B0193019B143318440190019B82
:10227800196002B0704700BF007400400828044B82
:102288000CBF42EA012242EA0142C250704700BF35
:102298002074004082B000230193064B0193019BF8
:1022A8002C3303EB90000190019B186880B202B0B8
:1022B800704700BF00740040064A4FF4805319B1BC
:1022C800116883400B4303E01168834021EA03034C
:1022D8001360704700740040054B814012B11A68C2
:1022E800114302E01A6822EA01011960704700BF31
:1022F80000740040FFF7F0BF034B5B6B814019424D
:1023080014BF01200020704700740040014B814039
:102318005963704700740040054B1A685B6B814035
:1023280011EA030003D00A4214BF012000207047BD
:1023380000740040014B81405963704700740040AD
:1023480008B5254B984206D10121102001F040FB29
:10235800002110203BE0214B984208D101214FF485
:10236800003001F029FB00214FF400300AE01C4B3B
:1023780098420BD101214FF4802001F01DFB002170
:102388004FF48020BDE8084001F016BB154B984279
:1023980008D101214FF4002001F00EFB00214FF479
:1023A8000020EFE7104B984208D101214FF480102C
:1023B80001F002FB00214FF48010E3E70B4B984239
:1023C80009D10121202001F003FB00212020BDE8D4
:1023D800084001F0FDBA08BD00100140004400406B
:1023E80000480040004C00400050004000140140EC
:1023F8007FB5038ACA889BB223F4405313430382F0
:1024080083890E469BB223F4B053898823F00C02CB
:1024180033890B4371890B439BB213438381838AAE
:10242800B2899BB223F440731343838204466846FF
:1024380001F0F4F9194B9C4203D003F580639C42E8
:1024480001D1039D00E0029DA389316813F4004F78
:102458004FF0190202FB05F214BF4D008D00B2FBCC
:10246800F5F5A2896426B5FBF6F00001010912040E
:1024780006FB115307D5D9003231B1FBF6F202F051
:102488000702104306E01A013232B2FBF6F303F0FA
:102498000F03184380B2208104B070BD00100140C2
:1024A8004FF4165303600C2200238380C3800381FA
:1024B800428183817047038A9BB223F4706210B50E
:1024C8004B880C8823438C88C98823430B439BB2D1
:1024D8001343038210BD0023038043808380C3809D
:1024E8007047838919B19BB243F4005303E023F486
:1024F80000531B041B0C83817047038B03F47F4339
:102508000383038B9BB2194301837047838929B1E5
:102518006FEA43436FEA53439BB201E0C3F30E03F0
:1025280083817047838A19B19BB243F4006303E047
:1025380023F400631B041B0C83827047C1F308015A
:10254800818070478088C0F308007047038A23F0B1
:102558000F031B041B0C0382038A9BB219430182DD
:102568007047838919B19BB243F0020303E023F05B
:1025780002031B041B0C83817047838923F40063C7
:102588001B041B0C838183899BB21943818170478B
:10259800038A23F020031B041B0C0382038A9BB2CB
:1025A800194301827047038A19B19BB243F48043EF
:1025B80003E023F480431B041B0C038270478389C8
:1025C8009BB243F0010383817047838A19B19BB2A0
:1025D80043F0080303E023F008031B041B0C838269
:1025E8007047038BDBB20383038B9BB243EA012161
:1025F80001837047838A19B19BB243F0200303E03B
:1026080023F020031B041B0C83827047838A19B1B3
:102618009BB243F0100303E023F010031B041B0CD0
:1026280083827047838A23F004031B041B0C838274
:10263800838A9BB2194381827047838A19B19BB2FE
:1026480043F0020303E023F002031B041B0C838204
:102658007047838A9BB20AB1194301E023EA01015A
:1026680081827047012310B5C1F342149C4201F0E6
:102678001F0103FA01F101D10C3003E0022C0CBF59
:102688001030143003680AB1194301E023EA01014C
:10269800016010BD0388194214BF01200020704753
:1026A800C94389B201807047012310B5C1F34214B0
:1026B80001F01F029C4203FA02F201D1838903E070
:1026C800022C0CBF038A838A9BB21340028892B201
:1026D80043B10123090A03FA01F10A4214BF18465B
:1026E800002010BD184610BD090A012303FA01F1A4
:1026F800C94389B201807047044B00221A605A60AE
:102708009A60DA60024A5A61704700BF003C014093
:10271800FFFF7F0082790168037970B542B3194AD7
:102728001568CE4335401560546803F1804303F5BE
:102738009E33344054601C682143196001689468D2
:10274800CD432C409460D3682B40D3604379102B41
:1027580006D193680B439360D3681943D16070BD69
:1027680003F1804303F59E331A681143196070BD65
:1027780003F1804303F59E331A6822EA01021A60C6
:1027880070BD00BF003C014000230C2203600371B0
:10279800427183717047024A136918431061704788
:1027A800003C0140034B5B69034214BF0120002039
:1027B800704700BF003C0140014B5861704700BFA3
:1027C800003C0140054B1A685B69034004D0024293
:1027D80014BF01200020704718467047003C014094
:1027E800014B5861704700BF003C0140F0B501F053
:1027F80003038DB00025DB00ADF8065007460E46F2
:1028080014460295ADF80630FEF712FF202303A800
:10281800039504950593FEF716FFBDF8060080B2F0
:10282800FEF73EFF3D46EB1B9E4204D955F8040BCC
:10283800FEF742FFF7E7FEF75BFF0820FEF7AAFF67
:10284800029B01330293029BB3F5803F02D000281C
:10285800F3D100E098B907A8FEF73CFF079B1BBA25
:102868002360089B1BBA6360099B1BBAA3600A9B81
:102878001BBAE3600B9B1BBA0120236100E0002018
:102888000DB0F0BD2DE9F04398468DB003F0030379
:102898000025DB00ADF80450ADF806500295ADF800
:1028A800043001F00303DB000E4607469146ADF8FD
:1028B8000630149CFEF7BCFE4023402E04934FF0D4
:1028C8002003059303A88CBF4FF480330695039526
:1028D80088BF0693FEF7B7FEBDF8060080B2FEF784
:1028E800DFFE3D46EB1BB34204D255F8040BFEF75E
:1028F800E3FEF7E7FEF7FCFE0820FEF74BFF029B1E
:1029080001330293029BB3F5803F02D00028F3D134
:1029180002E008B1002055E0BDF8040080B2FEF7DF
:10292800BFFE4D46C9EB0503434504D255F8040BD9
:10293800FEF7C2FEF6E7FEF7DBFE0023029308204F
:10294800FEF728FF029B01330293029BB3F5803FF9
:1029580002D00028F3D101E00028DBD1BDF8060041
:1029680080B2FEF79DFE3D46EB1B9E4204D955F80A
:10297800040BFEF7A1FEF7E7FEF7BAFE0023029369
:102988000820FEF707FF029B01330293029BB3F571
:10299800803F02D00028F3D101E00028BAD107A86F
:1029A800FEF798FE079B1BBA2360089B1BBA63605F
:1029B800099B1BBAA3600A9B1BBAE3600B9B1BBA5B
:1029C800012023610DB0BDE8F083000040F0BF6036
:1029D800024B40F40030D860704700BF00ED00E0C3
:1029E800C278037830B51AB3174A4578D168C94315
:1029F800C1F30221C1F10402D2B205FA02F2D4B243
:102A08000F220A4181780A40224303F1604303F50B
:102A180061431201D2B283F80023037801225909D5
:102A280003F01F0302FA03F3084A42F8213030BDCD
:102A38005A09012103F01F0301FA03F32032034965
:102A480041F8223030BD00BF00ED00E000E100E0B9
:102A580021F0604121F07F01014B084398607047E5
:102A680000ED00E0044B1A6909B1104301E022EAC5
:102A780000001861704700BF00ED00E0044B1A68C1
:102A880004280CBF42F0040222F004021A607047C6
:102A980010E000E0014BC0B218707047003C0240E3
:102AA800044B1A6810B142F4807201E022F480727B
:102AB8001A607047003C0240044B1A6810B142F497
:102AC800007201E022F400721A607047003C024074
:102AD800044B1A6810B142F4806201E022F480626B
:102AE8001A607047003C0240024A136843F40063CE
:102AF80013607047003C0240024A136843F4805355
:102B080013607047003C0240044B1A69002ABFBF9B
:102B1800034A5A6002F188325A607047003C02400A
:102B280023016745024A136943F000431361704764
:102B3800003C0240044B5A69D20741BF034A9A60DD
:102B480002F144329A607047003C02403B2A19085F
:102B5800024A536943F0010353617047003C024045
:102B6800044B1A7802F0F3021A701A78104318709E
:102B7800704700BF143C0240024B5869C0F347102D
:102B8800704700BF003C0240014B188880B2704774
:102B9800163C0240024B1878AA3818BF012070472B
:102BA800153C0240024B187800F00C00704700BF3B
:102BB800143C0240044B1A6909B1104301E022EAAF
:102BC80000001861704700BF003C0240034BDB68FF
:102BD800034214BF01200020704700BF003C0240A0
:102BE800014BD860704700BF003C02400B4BDA68CD
:102BF800D1030DD4DA68D2060CD4DA6812F0EF0FDC
:102C08000AD1DB6813F0020F14BF072008207047B1
:102C1800012070470520704706207047003C02409D
:102C280007B508238DF80730FFF7E0FF8DF8070098
:102C38009DF80730012BF7D09DF8070003B05DF829
:102C480004FB70B5064641B1012908D002290CBF22
:102C58004FF400754FF4407503E00D4601E04FF462
:102C68008075FFF7DDFF08281ED1104C236923F477
:102C780040732361216929432161236923F0F80303
:102C88002361236943F002031E432661236943F449
:102C980080332361FFF7C4FF236923F00203236114
:102CA800236923F0F803236170BD00BF003C024094
:102CB80010B50446FFF7B4FF44B1012C08D0022C2C
:102CC8000CBF4FF400734FF4407303E0234601E058
:102CD8004FF48073082815D10B4C226922F44072F6
:102CE8002261226913432361236943F004032361AA
:102CF800236943F480332361FFF792FF236923F0AC
:102D08000403236110BD00BF003C0240F8B505462E
:102D180016461F46FFF784FF082814D10A4C23697A
:102D280023F440732361236943F4407323612369C7
:102D380043F001032361C5E90067FFF771FF2369C9
:102D480023F001032361F8BD003C024070B505463D
:102D58000E46FFF765FF082813D10A4C236923F4B0
:102D680040732361236943F400732361236943F0AB
:102D7800010323612E60FFF753FF236923F001034A
:102D8800236170BD003C024070B505460E46FFF752
:102D980047FF082813D10A4C236923F440732361A1
:102DA800236943F480732361236943F0010323619A
:102DB8002E80FFF735FF236923F00103236170BDDF
:102DC800003C024070B505460E46FFF729FF08286B
:102DD80011D1094C236923F44073236123692361CA
:102DE800236943F0010323612E70FFF719FF23695C
:102DF80023F00103236170BD003C024038B504464E
:102E08000D46FFF70DFF082809D1054B18881DB19D
:102E180080B220EA040001E0204380B2188038BD67
:102E2800163C024010B50446FFF7FAFE082804BF16
:102E3800014B1C7010BD00BF153C024070B5064622
:102E48000C461546FFF7ECFE082809D1054B187803
:102E580000F00F00304345EA000244EA020119700D
:102E680070BD00BF143C0240034A137843F00203CC
:102E78001370FFF7D5BE00BF143C02402DE9F043A4
:102E88008DB08146002504A80C4698461746019542
:102E9800149E02F0A3F9B9F1010F1CBF0423ADF889
:102EA80008304FF01003ADF80A3002A84FF0800345
:102EB800ADF80C3008BFADF8085002F04CF92368A3
:102EC8001BBA069363681BBA04A8079302F072F949
:102ED80002F0A0F9012002F0A5F900240125A1467D
:102EE800444524D21DB3385902F0A8F93B19586853
:102EF80002F0A4F9CDF80490102002F03FFA019BEB
:102F080001330193019BB3F5803F02D00028F3D130
:102F180000E048B902F098F9306002F095F90836F7
:102F280046F8040C012500E000250834D8E7002005
:102F380002F078F928460DB0BDE8F0832DE9F04598
:102F480091B08246002708A80D4698461446019776
:102F5800199E02F043F9BAF1010F1CBF0423ADF822
:102F680008304FF01803ADF80A3002A84FF080037C
:102F7800ADF80C3008BFADF8087002F0ECF82B681B
:102F88001BBA0A936B681BBA08A80B9302F012F9D4
:102F980023681BBA049363681BBA04A8059302F05C
:102FA80027F902F037F9012002F03CF90024012545
:102FB8002746189B9C4225D225B358F8040002F0F6
:102FC8003DF908EB0403586802F038F9019710201E
:102FD80002F0D4F9019B01330193019BB3F5803FC3
:102FE80002D00028F3D100E048B902F02DF9306092
:102FF80002F02AF9083646F8040C012500E00025FD
:103008000834D6E7002002F00DF9284611B0BDE8D3
:10301800F0852DE9F0438DB00025814604A80C46C3
:10302800984617460195149E02F0D8F8B9F1010F99
:103038001CBF0423ADF8083002A84FF08003ADF898
:103048000C3008BFADF80850ADF80A5002F083F80C
:1030580023681BBA069363681BBA0793A3681BBA55
:103068000893E3681BBA099323691BBA0A93636937
:103078001BBA04A80B9302F09DF802F0CBF80120CC
:1030880002F0D0F800240125A146444524D21DB3FE
:10309800385902F0D3F83B19586802F0CFF8CDF848
:1030A8000490102002F06AF9019B01330193019BFF
:1030B800B3F5803F02D00028F3D100E048B902F010
:1030C800C3F8306002F0C0F8083646F8040C012551
:1030D80000E000250834D8E7002002F0A3F82846CD
:1030E8000DB0BDE8F0832DE9F04591B08246002689
:1030F80008A80C46984615460196199F02F06EF8E6
:10310800BAF1010F1CBF0423ADF808304FF00803D3
:10311800ADF80A3002A84FF08003ADF80C3008BFB4
:10312800ADF8086002F017F823681BBA0A936368C1
:103138001BBA0B93A3681BBA0C93E3681BBA0D93D5
:1031480023691BBA0E9363691BBA08A80F9302F090
:1031580031F82B681BBA04936B681BBA04A8059353
:1031680002F046F802F056F8012002F05BF800245D
:1031780001252646189B9C4225D225B358F8040001
:1031880002F05CF808EB0403586802F057F801965F
:10319800102002F0F3F8019B01330193019BB3F572
:1031A800803F02D00028F3D100E048B902F04CF883
:1031B800386002F049F8083747F8040C012500E0A8
:1031C80000250834D6E7002002F02CF8284611B074
:1031D800BDE8F0852DE9F0438DB0914605460026FF
:1031E80004A80C4698460196159F01F0F7FFB9F11F
:1031F800C00F12D0B9F5807F24D0B9F1800F3DD12E
:10320800ADF80E6023681BBA089363681BBA09936C
:10321800A3681BBA0A93E3682EE04FF48073ADF8F5
:103228000E3023681BBA069363681BBA0793A3681A
:103238001BBA0893E3681BBA099323691BBA0A935C
:10324800636919E04FF40073ADF80E3023681BBAB8
:10325800049363681BBA0593A3681BBA0693E368D3
:103268001BBA079323691BBA089363691BBA0993AE
:10327800A3691BBA0A93E3691BBA0B9315BB01F048
:10328800C9FF0423ADF8083002A83823ADF80A3086
:10329800ADF80C5001F05FFF04A801F08BFF01208E
:1032A80001F0C0FF102002F069F8019B013301937F
:1032B800019BB3F5803F02D00028F3D100E048B964
:1032C800042303E004A801F075FF0023ADF80830DB
:1032D800012500E00025202302A8ADF80A3080234C
:1032E800ADF80C3001F037FF01F094FF012001F038
:1032F80099FF44460026149AC8EB04039A422ED933
:103308006DB3206801F09AFF606801F097FFA0682C
:1033180001F094FFE06801F091FF1034019610204D
:1033280002F02CF8019B01330193019BB3F5803F18
:1033380002D00028F3D100E078B901F085FF3860A9
:1033480001F082FF786001F07FFFB86001F07CFF38
:10335800103747F8040C0125CDE70025CBE70020FE
:1033680001F060FF28460DB0BDE8F0832DE9F04E6E
:1033780090B09A4681464FF0000B08A80D461446B7
:10338800189ECDF804B01A9F01F028FFBAF1C00FBB
:1033980012D0BAF5807F24D0BAF1800F3DD1ADF8B4
:1033A8000EB023681BBA0C9363681BBA0D93A3680D
:1033B8001BBA0E93E3682EE04FF48073ADF80E301D
:1033C80023681BBA0A9363681BBA0B93A3681BBADA
:1033D8000C93E3681BBA0D9323691BBA0E936369B8
:1033E80019E04FF40073ADF80E3023681BBA089348
:1033F80063681BBA0993A3681BBA0A93E3681BBAEC
:103408000B9323691BBA0C9363691BBA0D93A369C9
:103418001BBA0E93E3691BBA0F932B681BBA04936C
:103428006B681BBA0593AB681BBA0693EB681BBAAB
:103438000793B9F1000F22D101F0ECFE0423ADF897
:10344800083002A83823ADF80A30ADF80C9001F026
:1034580082FE08A801F0AEFE012001F0E3FE102074
:1034680001F08CFF019B01330193019BB3F5803F71
:1034780002D00028F3D100E048B9042303E008A8EB
:1034880001F098FE0023ADF80830012500E0002582
:103498002823ADF80A3002A88023ADF80C3001F0DB
:1034A8005AFE04A801F0A4FE01F0B4FE012001F0C8
:1034B800B9FE34464FF00009199AA31B9A422FD936
:1034C80075B3206801F0BAFE606801F0B7FEA06825
:1034D80001F0B4FEE06801F0B1FE1034CDF80490BC
:1034E800102001F04BFF019B01330193019BB3F5C1
:1034F800803F02D00028F3D100E078B901F0A4FEA3
:10350800386001F0A1FE786001F09EFEB86001F01D
:103518009BFE103747F8040C0125CDE70025CBE7C3
:10352800002001F07FFE284610B0BDE8F08E2DE99E
:10353800F04E90B09A4681464FF0000B08A80F460F
:103548001446189ECDF804B01A9D01F047FEBAF152
:10355800C00F12D0BAF5807F24D0BAF1800F3DD1C8
:10356800ADF80EB023681BBA0C9363681BBA0D93B1
:10357800A3681BBA0E93E3682EE04FF48073ADF88E
:103588000E3023681BBA0A9363681BBA0B93A368AF
:103598001BBA0C93E3681BBA0D9323691BBA0E93ED
:1035A800636919E04FF40073ADF80E3023681BBA55
:1035B800089363681BBA0993A3681BBA0A93E36864
:1035C8001BBA0B9323691BBA0C9363691BBA0D933F
:1035D800A3691BBA0E93E3691BBA0F933B681BBA26
:1035E80004937B681BBA0593BB681BBA0693FB68F8
:1035F8001BBA08A8079301F0DDFDB9F1000F01D14E
:10360800042300E00023ADF808303023ADF80A3079
:1036180002A88023ADF80C3001F09DFD04A801F04C
:10362800E7FD01F0F7FD012001F0FCFD344601271C
:103638004FF00009199AA31B9A422FD977B3206833
:1036480001F0FCFD606801F0F9FDA06801F0F6FDED
:10365800E06801F0F3FD1034CDF80490102001F07B
:103668008DFE019B01330193019BB3F5803F02D08E
:103678000028F3D100E078B901F0E6FD286001F0F8
:10368800E3FD686001F0E0FDA86001F0DDFD1035A4
:1036980045F8040C0127CDE70027CBE7002001F00F
:1036A800C1FD384610B0BDE8F08E00000A4B1A681C
:1036B800002142F001021A6099601A6822F08472AF
:1036C80022F480321A60054A5A601A6822F480226D
:1036D8001A60D960704700BF0038024010300024DB
:1036E800024B00221A701870704700BF023802405F
:1036F800034A136823F0F80343EAC00010607047D8
:1037080000380240014B1860704700BF0000474274
:10371800064B002201281A701A7002D0042802D021
:1037280070471870704705221A7070477038024049
:10373800014B1860704700BF800E474210B5029CCD
:1037480040EA046001435B08013B41EA821242EA15
:103758000340014B586010BD00380240014B18600F
:10376800704700BF600047420907034B41EA8010D9
:10377800C3F88400704700BF00380240014B18604E
:10378800704700BF68004742014B1860704700BF90
:103798004C004742034A936823F0EC6319430843FB
:1037A8009060704700380240034A936823F07843DA
:1037B800194308439060704700380240034A9368F1
:1037C80023F0030318439060704700BF003802409D
:1037D800024B986800F00C00704700BF00380240A8
:1037E800034A936823F0F00318439060704700BFC2
:1037F80000380240034A936823F4E053184390606A
:10380800704700BF00380240034A936823F46043BE
:1038180043EAC00090607047003802401D4A936830
:1038280003F00C03042B10B503D0082B03D01A4B5C
:1038380018E01A4B16E05168536811F4800F03F032
:103848003F03516814BF154A134AB2FBF3F3114AF8
:103858005268C2F30142C1F3881101324B4352004E
:10386800B3FBF2F30B4A036093680D49C3F30313E8
:10387800CC5C0368E34043609468C4F382240C5D25
:1038880023FA04F484609268C2F342328A5CD3401B
:10389800C36010BD003802400024F40000127A0012
:1038A8002400002000F44073B3F5407F084A08D193
:1038B800936820F0704123F4F81321F440710B430E
:1038C8009360136FC0F30B0018431067704700BF75
:1038D80000380240014B1860704700BF3C0E474259
:1038E800014B1860704700BF400E4742014B1860FB
:1038F800704700BF5C014742044B1A6B09B1104383
:1039080001E022EA00001863704700BF0038024057
:10391800044B5A6B09B1104301E022EA00005863D6
:10392800704700BF00380240044B9A6B09B110433E
:1039380001E022EA00009863704700BF00380240A7
:10394800044B1A6C09B1104301E022EA0000186424
:10395800704700BF00380240044B5A6C09B110434D
:1039680001E022EA00005864704700BF00380240B6
:10397800044B1A6909B1104301E022EA00001861FA
:10398800704700BF00380240044B5A6909B1104320
:1039980001E022EA00005861704700BF0038024089
:1039A800044B9A6909B1104301E022EA00009861CA
:1039B800704700BF00380240044B1A6A09B110432F
:1039C80001E022EA00001862704700BF0038024098
:1039D800044B5A6A09B1104301E022EA0000586218
:1039E800704700BF00380240044B1A6D09B11043FC
:1039F80001E022EA00001865704700BF0038024065
:103A0800044B5A6D09B1104301E022EA00005865E1
:103A1800704700BF00380240044B9A6D09B110434B
:103A280001E022EA00009865704700BF00380240B4
:103A3800044B1A6E09B1104301E022EA000018662F
:103A4800704700BF00380240044B5A6E09B110435A
:103A580001E022EA00005866704700BF00380240C3
:103A6800044B1A7809B1104301E022EA00001870EB
:103A7800704700BF0D3802404209012A074B01D1A7
:103A88001B6803E0022A0CBF1B6F5B6F00F01F006E
:103A980023FA00F000F00100704700BF0038024030
:103AA80007B5002301933120FFF7E6FF019B01339F
:103AB8000193019BB3F5A06F01D00028F3D031200A
:103AC800FFF7DAFF003018BF012003B05DF804FBF0
:103AD800024A536F43F080735367704700380240BF
:103AE800034BDB68184214BF01200020704700BF59
:103AF80000380240014B1870704700BF0E38024072
:103B080000230928DAB203F1010302D90A38C0B246
:103B1800F7E740EA0210C0B27047030903EB8303DA
:103B280000F00F0000EB4300C0B2704700217F2275
:103B3800FF2380E80E007047044B08B1FF2202E023
:103B4800CA225A6253225A62704700BF00280040B6
:103B580082B0002301930D4BDA68520613D44FF05C
:103B6800FF32DA60DA680199013101910199B1F502
:103B7800803F02F0400201D0002AF3D0034BD868FE
:103B8800C0F3801000E0012002B070470028004018
:103B9800024AD36823F08003D360704700280040AE
:103BA80038B50F4CCA236362532363620546FFF797
:103BB800CFFF88B1A36823F04003A360A2682B68F5
:103BC8001343A360AB68236123696A6843EA02432D
:103BD8002361FFF7DDFF0120014BFF225A6238BD48
:103BE8000028004082B0002301930E4BCA225A627B
:103BF80053225A62DA6822F0A002DA60DA68019980
:103C0800013101910199B1F5003F02F02002054907
:103C180001D0002AF2D0C868FF23C0F340104B62DD
:103C280002B070470028004037B51D4CCA23002554
:103C38000195636253236362FFF78AFF08B9002086
:103C480029E042F2011325606360A36803F00703CB
:103C5800A360E368019A01320192019AB2F5803FAC
:103C680003F0040301D0002BF3D00D4BDA685207A0
:103C7800E5D59A684FF6FF7100229A6059610949A3
:103C880019619A61DA611A62DA601A64FFF7AAFFA9
:103C9800003018BF0120024BFF225A6203B030BD2A
:103CA80000280040FF007F0038B50C4CCA2363622F
:103CB800532363620546FFF74BFF214650B1A368C3
:103CC80015B143F0100301E023F010038B60FFF7F8
:103CD8005FFF0120FF234B6238BD00BF0028004072
:103CE800074BCA225A6253225A629A6810B142F0AC
:103CF800200201E002F0DF029A60FF225A62704758
:103D080000280040214B70B59B680C784D788E7860
:103D180020B913F0400321D1CB701FE013F040030A
:103D280000D1CB70280240EA0440CC78304340EA06
:103D38000444164DCA236B6253236B62FFF708FFD6
:103D4800F8B104F07F3020F0FE402860FFF720FF34
:103D5800FFF748FF003018BF012012E02046FFF7A8
:103D6800CFFE04462846FFF7CBFE05463046FFF750
:103D7800C7FECB7840EA034040EA044040EA052405
:103D8800D7E7024BFF225A6270BD00BF00280040EF
:103D98000023C370037043708370704738B5104BAD
:103DA8001A6802F07F3222F0FE44230C03F03F052C
:103DB800C4F3062402F07F0203F040030D704C7038
:103DC8008A70CB7058B92846FFF7A7FE08702046BE
:103DD800FFF7A3FE48701046FFF79FFE887038BDB6
:103DE80000280040014B986A5B6870470028004033
:103DF80070B54B78CC788D780E7858BBDA0603D539
:103E080023F010000A3048702046FFF779FE044678
:103E18004878FFF775FE01462846FFF771FE40EA2D
:103E2800463040EA044040EA0124104DCA236B6240
:103E380053236B62FFF78CFE98B124F07F4020F08B
:103E4800C0006860FFF7A4FEFFF7CCFE003018BF83
:103E5800012006E0180240EA0440284340EA4634BC
:103E6800E3E7024BFF225A6270BD00BF0028004002
:103E780001230370837043700023C370704738B503
:103E88000F4B5A6822F07F4222F0C0031D0CC3F387
:103E9800042402F03F02C3F34233CD704C708A70A1
:103EA8000B7058B92846FFF738FEC8702046FFF750
:103EB80034FE48701046FFF730FE887038BD00BFEA
:103EC800002800402DE9F84F1546274BD2F8088006
:103ED800566892F802B092F800E05478177B28B937
:103EE8009B6813F0400322D1D37020E09A6812F047
:103EF800400200D1EA7048EA060040EA0B0040EAB6
:103F08000E40EB7840EA042040EA034040EA0760AC
:103F1800154BCA225A6253225A62B1F5807F4FF07C
:103F2800FF020CBFD86118625A62BDE8F88F70466C
:103F3800FFF7E6FD82462046FFF7E2FD8146584638
:103F4800FFF7DEFD04463846FFF7DAFDEB7848EA6E
:103F5800060646EA0343234343EA0A4444EA09249B
:103F680044EA0060D4E700BF002800400023012293
:103F7800C37003704370837083600273436070473B
:103F8800F8B5174BB1F5807F0CBFDB691B6AC3F32B
:103F98000741064601F03F0001F04001C3F3062542
:103FA80003F07F0403F08047D170C3F3056103F089
:103FB800803310705570947011739760536076B9A0
:103FC800FFF7ABFD10702846FFF7A7FD507020469D
:103FD800FFF7A3FD90700846FFF79FFD1073F8BD2B
:103FE8000028004082B000230193144BCA225A6271
:103FF80053225A629A6819B110439860012017E059
:1040080022EA00029A60000ADA68019901310191F6
:104018000199B1F5803F02EA000206D1074BDB683F
:10402800184214BF0120002002E0002AECD0F5E776
:10403800024BFF225A6202B0704700BF00280040BE
:1040480010B5074BCA245C620A43B0F5807F4FF075
:1040580053045C620CBF5A649A64FF225A6210BD12
:1040680000280040044BB0F5807F0CBF586C986C5A
:10407800C0F30E00704700BF00280040074BCA225B
:104088005A6253225A629A6822F007029A609A6822
:104098001043FF2298605A62704700BF0028004012
:1040A800044BCA225A6253225A62FF2258615A624A
:1040B800704700BF00280040014B586980B2704724
:1040C8000028004082B000230193124BCA225A6292
:1040D80053225A629A6820B142F480629A600120A1
:1040E80012E022F480629A60DA6801990131019144
:1040F8000199B1F5803F02F0040201D0002AF3D003
:10410800044BD868C0F38000024BFF225A6202B009
:10411800704700BF00280040074BCA225A6253224A
:104128005A629A6822F480229A609A681143084376
:10413800FF2298605A62704700280040024B986836
:1041480000F48020704700BF00280040074BCA22B7
:104158005A6253225A629A6822F4E0029A609A6874
:1041680011430843FF2298605A62704700280040B4
:1041780070B5094CCA2363625323636206460D4631
:10418800FFF7E6FC20B13543A561FFF701FD0120EB
:10419800FF23636270BD00BF0028004038B50C4C97
:1041A800CA236362532363620546FFF7D1FC2146A5
:1041B80050B1A36815B143F0800301E023F08003F8
:1041C8008B60FFF7E5FC0120FF234B6238BD00BF81
:1041D80000280040074BCA225A6253225A629A6842
:1041E80010B142F4000201E022F400029A60FF22BA
:1041F8005A62704700280040074BCA225A6253226D
:104208005A629A6822F400229A609A681043FF2240
:1042180098605A62704700BF002800400E4B30B5C6
:10422800CA245C6253245C62DC68E40305D50B4C49
:10423800DD68ED0301D5013CFAD1074BDC68E403E6
:104248005CBF0A4310434FF0FF0256BFD8630020FB
:1042580001205A6230BD00BF002800400100020062
:10426800084A936823F4006323F0080309B143F470
:104278000063CA2151620343532151629360FF23B3
:104288005362704700280040F8B51E4B1E6B5B6BED
:1042980006F07F3626F0FE473D0C23F07F4305F0FD
:1042A8003F0E05F04005CD7023F0C0040025C7F38C
:1042B800062781F800E04F708E7003F03F03D57039
:1042C800C4F30425C4F34234557093701470B8B91C
:1042D8000878FFF722FC08704878FFF71EFC487042
:1042E8008878FFF71AFC88705078FFF716FC507032
:1042F8009078FFF712FC90701078FFF70EFC1070A2
:10430800F8BD00BF00280040014B986B704700BF04
:1043180000280040044B40001A6C11B922EA000042
:1043280000E010431864704700280040044B1A6CE2
:1043380009B1104301E022EA00001864704700BF89
:1043480000280040044B1A6C22F4C0521A641A6CFC
:1043580010431864704700BF00280040044B1A6CD3
:1043680022F4E0621A641A6C10431864704700BFA4
:1043780000280040044B1A6C22F4C0421A641A6CDC
:1043880010431864704700BF00280040044B1A6CA3
:1043980010B142F0800201E022F080021A647047F6
:1043A80000280040044B1A6C10B122F4004201E0CE
:1043B80042F400421A6470470028004082B000238B
:1043C8000193054B0193019B03EB80000190019B36
:1043D800196002B0704700BF5028004082B0002327
:1043E8000193054B0193019B03EB80000190019B16
:1043F800186802B0704700BF50280040044B1A6C80
:1044080022F480321A641A6C10431864704700BF93
:1044180000280040044B1A6C22F400321A641A6C0B
:1044280010431864704700BF00280040044B1A6C02
:1044380022F480221A641A6C10431864704700BF73
:1044480000280040134BCA2210B55A6253225A6200
:10445800DA68120706D541F20102DC68240701D5A3
:10446800013AFAD10B4AD36813F008030AD19468C9
:10447800E40609D40843D062FFF7B4FB003018BF44
:10448800012002E0002000E01846024BFF225A6299
:1044980010BD00BF002800400E4BCA2210B55A625A
:1044A800532220F004045A6200F0040031B19968E4
:1044B80044EA01029A601A6C104306E09A6822EAFC
:1044C80004029A601A6C22EA00001864014BFF2269
:1044D8005A6210BD00280040054BDB6823F08803B2
:1044E8009B049B0C034214BF01200020704700BFAF
:1044F80000280040054AD36880B240F0800003F0ED
:10450800800363EA0003D360704700BF00280040BF
:104518000A490B6C8A6803F0040310B5CC6803EAF7
:10452800D03102EA00030B4306D0A3B213EA1013FA
:1045380014BF0120002010BD184610BD00280040FF
:10454800054AD368C0F30F1040F0800003F08003E1
:1045580063EA0003D36070470028004008B50121D2
:104568004FF08050FFF728FA00214FF08050BDE847
:104578000840FFF721BA014B1860704720000E422F
:10458800034A136823F0E00318431060704700BF24
:1045980000700040014B1860704700BF10000E42C9
:1045A800014B1860704700BFA0000E42014B186015
:1045B800704700BFA4000E42044B1A6810B922F4D9
:1045C800804201E042F480421A6070470070004067
:1045D800014B1860704700BF24000E420A4A136856
:1045E80023F003031843094B10601A69012942F0AC
:1045F80004021A6101D130BF00E020BF1A6922F01D
:1046080004021A61704700BF0070004000ED00E02E
:10461800074B1A6842F004021A601A6842F0020254
:104628001A60044A136943F00403136130BF7047EA
:104638000070004000ED00E0034B5B68034214BFCC
:1046480001200020704700BF00700040024A136834
:1046580043EA8000106070470070004008B5144BB2
:10466800984208D101214FF40010FFF7A5F9002165
:104678004FF4001016E00F4B984208D101214FF477
:104688008000FFF799F900214FF480000AE00A4BF7
:1046980098420BD101214FF40000FFF78DF900215A
:1046A8004FF40000BDE80840FFF786B908BD00BF19
:1046B8000054004000580040005C00407FB58688E8
:1046C80026F03F060446360468460D46360CFFF7CA
:1046D800A5F8029A2C48B2FBF0F081B20E43A680EE
:1046E80023882A4E23F001031B041B0C23802B680C
:1046F800B3420AD85B000131B2FBF3F39BB2032B40
:1047080089B298BF0423218423E0EE884BF6FF7119
:104718008E421BBF19214B4303EB4303B2FBF3F358
:1047280015BF9BB2B2FBF3F343F480439BB2C3F3D0
:104738000B020AB943F001034FF4967101FB00F232
:104748004FF47A7192FBF1F2013292B243F40043D2
:104758002284A3832388A9886A899BB243F0010332
:104768002380238823F4816323F002031B040A4374
:104778001B0C13439BB22380AA892B8913439BB23A
:10478800238104B070BD00BF40420F00A086010025
:1047980041F288330360002383804BF6FF72038164
:1047A80043814FF48043C28083817047038819B1E5
:1047B8009BB243F0010303E023F001031B041B0C2D
:1047C80003807047038819B19BB243F4807303E0F8
:1047D80023F480731B041B0C03807047038819B1F2
:1047E8009BB243F4007303E023F400731B041B0C17
:1047F8000380704712B141F0010101E001F0FE01B0
:1048080089B201827047038819B19BB243F480636F
:1048180003E023F480631B041B0C03807047838927
:104828009BB201F0FE0123F0FE030B438381704726
:10483800838919B19BB243F0010303E023F001031C
:104848001B041B0C83817047038819B19BB243F08A
:10485800400303E023F040031B041B0C0380704754
:10486800038829B16FEA43436FEA53439BB201E0DF
:10487800C3F30E0303807047038819B99BB243F052
:10488800800303E023F080031B041B0C03807047A4
:10489800838BB1F5804F1BBF23F480431B049BB26D
:1048A8001B0C08BF43F48043838370470388B1F52A
:1048B800005F15BF23F400539BB21B0443F400535D
:1048C80018BF1B0C03807047038819B19BB243F0D3
:1048D800100303E023F010031B041B0C0380704734
:1048E80001827047008AC0B27047038819B19BB231
:1048F80043F4805303E023F480531B041B0C038010
:1049080070470388B1F5006F15BF23F400639BB2AD
:104918001B0443F4006318BF1B0C03807047FFF7A8
:10492800F0BF038819B19BB243F0200303E023F0E2
:1049380020031B041B0C03807047008BC0F3072067
:104948007047838819B19BB243F4006303E023F4F2
:1049580000631B041B0C83807047838819B19BB2CA
:1049680043F4805303E023F480531B041B0C83801F
:10497800704782B0002301930190019B1944019173
:10498800019B188880B202B0704783889BB20AB135
:10499800194301E023EA010181807047838A008B73
:1049A8009BB243EA004321F07F4203EA0200431A24
:1049B800584258417047838A008B9BB243EA0040B3
:1049C80020F07F40704782B00023009301930B0FC3
:1049D80001900093009B21F07F4113B1019B143398
:1049E80002E0019B090C18330193019B1B681942D3
:1049F80014BF0120002002B07047C94389B28182E8
:104A080070478388808A80B208409BB206D003F43E
:104A1800E06313EA114314BF012000207047C94323
:104A280089B28182704700BF08B501214FF48070B8
:104A3800FEF7CEFF00214FF48070BDE80840FEF776
:104A4800C7BF436823F040720B6822F48072134397
:104A58000A7943EA022343600A69CB681A438B68E0
:104A680010B51A438468084B234013434A7943EA34
:104A780042038360C36A23F470020B7D013BDBB2FF
:104A880042EA0353C36210BDFDF7FFC00023036071
:104A9800037143718360C360036101230375704729
:104AA80010B5074C074B6268134090E806001143A5
:104AB80082681143C2680A431343636010BD00BF94
:104AC80000230140E030FCFF002303604360836063
:104AD800C3607047836811B143F0010301E023F01C
:104AE800010383607047436823F4400323F4007391
:104AF800194341607047416282627047436823F0FE
:104B08001F03194341607047044B5A6810B142F4BF
:104B1800000201E022F400025A60704700230140BD
:104B2800044B5A6810B142F4800201E022F480027A
:104B38005A60704700230140092970B50DD9A1F1C9
:104B48000A04C66804EB44040725A54026EA0505BF
:104B580003FA04F42C43C4600AE0066901EB41043B
:104B68000725A54026EA050503FA04F42C43046149
:104B7800062A0CD8013A446B02EB82021F239340A9
:104B880024EA030301FA02F21A43426370BD0C2AB5
:104B98000CD8073A046B02EB82021F23934024EAE5
:104BA800030301FA02F21A43026370BD0D3AC46AA4
:104BB80002EB82021F23934024EA030301FA02F264
:104BC8001A43C26270BD836843F0804383607047B4
:104BD800836811B143F4806301E023F48063836048
:104BE8007047836811B143F0020301E023F0020328
:104BF800836070474368013923F4604343EA4133D3
:104C080043607047436811B143F4006301E023F443
:104C1800006343607047C06C80B27047014B1868EE
:104C2800704700BF08230140836811B143F48073C3
:104C380001E023F4807383607047836811B143F403
:104C4800007301E023F4007383607047044B5A68D3
:104C580010B142F4005201E022F400525A60704749
:104C680000230140092970B50DD9A1F10A04C668CD
:104C780004EB44040725A54026EA050503FA04F4D5
:104C88002C43C4600AE0066901EB41040725A540EE
:104C980026EA050503FA04F42C430461836B023207
:104CA800C3F30154121BD2B202EB82021F249440B8
:104CB80023EA040391401943816370BD836B013972
:104CC80023F4401343EA01538363704782B00023FF
:104CD80001930190019B19440191019B1A6002B054
:104CE8007047836823F47023194381607047836891
:104CF80023F44013194381607047836843F48003A9
:104D0800836070478068C0F380507047FFF7FABF30
:104D1800436811B143F4806301E023F48063436086
:104D28007047436811B143F4805301E023F4805382
:104D38004360704782B0002301930190019B2833A0
:104D480019440191019B186880B202B07047012391
:104D5800C9B203FA01F143680AB1194301E023EA31
:104D68000101416070470368194214BF0120002007
:104D78007047C943016070474268006810EA112013
:104D880007D00123C9B203FA01F1114214BF184632
:104D9800002070476FEA112101607047054B00221F
:104DA8001F211A60DA6059619A61DA611A625A62DF
:104DB800704700BF00000550018842880A43818877
:104DC80010B50C4C0A43C18823680A43018923F4AF
:104DD800804323F001030A434189236023680A437F
:104DE800818923F47F630A4323F0020392B21343B9
:104DF800236010BD0000055000230380438083809A
:104E0800C3800381438183817047028843888188F6
:104E180043EA0243034A1362C38843EA01435362E5
:104E2800704700BF00000550044B1A6810B142F0EB
:104E3800040201E022F004021A60704700000550E5
:104E4800014B02689A61704700000550044B1A68CC
:104E580010B142F0080201E022F008021A6070471F
:104E680000000550044B1A6810B142F4804201E07A
:104E780022F480421A60704700000550044B1A68FB
:104E880010B142F0010201E022F001021A607047FD
:104E980000000550014B986A704700BF000005509C
:104EA800044BDA6809B1104302E0C04380B21040F5
:104EB800D860704700000550020B012A064B01D14B
:104EC8009B6803E0022A0CBF5B681B69184214BF89
:104ED80001200020704700BF00000550014B5861B9
:104EE800704700BF00000550034B1B69184214BFF0
:104EF80001200020704700BF00000550014B586199
:104F0800704700BF00000550014B1868000C70473F
:104F1800002004E0024B1868C0F30B00704700BF84
:104F2800002004E0044B5A6809B1104301E022EA6A
:104F380000005860704700BF002004E0044B9A68E6
:104F480009B1104301E022EA00009860704700BFF1
:104F5800002004E0044BDA6809B1104301E022EABA
:104F68000000D860704700BF002004E0F0B501F0F1
:104F780003038DB00025DB00ADF8065007460E464A
:104F880014460295ADF80630FCF752FB80230393D4
:104F980003A8202304950593FCF755FBBDF80600EC
:104FA80080B2FCF77DFB3D46EB1B9E4204D955F8C9
:104FB800040BFCF781FBF7E7FCF79AFB0820FCF7EA
:104FC800E9FB029B01330293029BB3F5803F02D0B9
:104FD8000028F3D100E080B907A8FCF77BFB079B0A
:104FE8001BBA2360089B1BBA6360099B1BBAA360AA
:104FF8000A9B1BBA0120E36000E000200DB0F0BD61
:105008002DE9F04398468DB003F003030027DB0039
:10501800ADF80470ADF806700297ADF8043001F0F1
:105028000303DB000D4606469146ADF80630149C96
:10503800FCF7FEFA802303934023402D04934FF09E
:105048002003059303A88ABF4FF48033069706937D
:10505800FCF7F9FABDF8060080B2FCF721FB3746E9
:10506800BB1BAB4204D257F8040BFCF725FBF7E750
:10507800FCF73EFB0820FCF78DFB029B01330293F3
:10508800029BB3F5803F02D00028F3D102E008B1BB
:10509800002052E0BDF8040080B2FCF701FB4F4647
:1050A800C9EB0703434504D257F8040BFCF704FB8C
:1050B800F6E7FCF71DFB002302930820FCF76AFBC8
:1050C800029B01330293029BB3F5803F02D0002874
:1050D800F3D101E00028DBD1BDF8060080B2FCF76F
:1050E800DFFA3746BB1B9D4204D957F8040BFCF77F
:1050F800E3FAF7E7FCF7FCFA002302930820FCF731
:1051080049FB029B01330293029BB3F5803F02D017
:105118000028F3D101E00028BAD107A8FCF7DAFA91
:10512800079B1BBA2360089B1BBA6360099B1BBAC9
:10513800A3600A9B1BBA0120E3600DB0BDE8F083B1
:1051480008B501211020FEF71FFC00211020BDE842
:105158000840FEF719BC134B1A6822F0380210B544
:105168001A6019684288848811431960196821F007
:10517800C0011960196822F018022143202A196019
:1051880007D11A68C18822F440721A601A680A4363
:105198001A601A68018822F004021A601A680A4321
:1051A8001A6010BD000006500023038043808380EE
:1051B800C3807047084B02681A6242685A62826864
:1051C8009A62C268DA6202691A6342695A6382693A
:1051D8009A63C269DA6370470000065000230360CF
:1051E80043608360C360036143618361C361704747
:1051F800044B02681A6442685A6482689A64C268F6
:10520800DA6470470000065000230360436083603F
:10521800C3607047024A136843F4804313607047C1
:1052280000000650044B1A6810B142F4004201E035
:1052380022F400421A60704700000650014B986043
:10524800704700BF00000650014BD868704700BF88
:105258000000065073B500230193234B1A6922F00E
:1052680001021A611A6812F0080F14BF11221522E0
:105278004FF6FF765C68019D01350195019DB542A9
:1052880004EA020401D0012CF4D1174B5C682240D7
:10529800012A25D11C6924F002041C611C6824F42D
:1052A80000441C601C6804F47F7404601C6C446037
:1052B8005C6C84609C6CC460DB6C03610B6843614C
:1052C8004B6883618B68C361CB6803620B69436277
:1052D8004B6983628B69C362CB690363104600E044
:1052E800002002B070BD00BF000006500F4B0268DE
:1052F8001A6042691A6282695A62C2699A62026ACB
:10530800DA62426A1A63826A5A63C26A9A63026BF1
:10531800DA6342681A6482685A64C2689A640269E5
:10532800DA641A6842F400421A60704700000650B6
:10533800054A136909B1184303E023EA000000F0A5
:10534800FF001061704700BF00000650054A53690E
:1053580009B1184303E023EA000000F0FF005061A0
:10536800704700BF00000650034BDB69184214BFAA
:1053780001200020704700BF00000650054B10F0C8
:10538800200F14BF9B695B68184214BF01200020DE
:10539800704700BF0000065008B501214FF40060B7
:1053A800FEF70AFB00214FF40060BDE80840FEF755
:1053B80003BB034A536823F4C07318435060704713
:1053C800002C004082B0084A00230193536823F060
:1053D8007F030193019B00F07F0003430193019B2E
:1053E800536002B0704700BF002C0040014B0122FF
:1053F8001A607047A4800542024B00F07F001860D5
:10540800704700BF002C0040024B40F0800018603D
:10541800704700BF002C0040024B9868003018BF4E
:1054280001207047002C0040014B00229A60704711
:10543800002C004008B5154B98420BD101214FF4C0
:105448008050FEF7C5FA00214FF48050BDE80840AF
:10545800FEF7BEBA0E4B984208D101214FF48040A6
:10546800FEF7AAFA00214FF480400AE0094B98425F
:105478000BD101214FF40040FEF79EFA00214FF4B2
:105488000040BDE80840FEF797BA08BD003001406B
:1054980000380040003C004003880A8810B503F437
:1054A80041544B8813438A881343CA8813430A8993
:1054B80013434A8913438A891343CA8913432343ED
:1054C8009BB20380838B23F400631B041B0C838330
:1054D8000B8A038210BD838B23F47B6323F00F03B5
:1054E8001B041B0C8383022303848B68F0B5848B15
:1054F800022BA4B239D0294F8A88002ABA6814BF6F
:105508004FF0020E4FF0010E120242BFBA6822F4A9
:105518000002BA60D7F88420D7F884507E68204FFC
:10552800C2F3881206F03F06B7FBF6F65643CA8860
:10553800B2F5007FC5F302754FF00A02B6FBF5F528
:105548000EBF2D0A4FEA4E16B5FBF6F56A43B2FBBD
:10555800F3F305330A229BB2B3FBF2F303F0010223
:105568001202C3F34F0392B200E000229D1EADB2B7
:10557800FE2D24BF002202231343CA8813439BB283
:1055880003840B888A881C434B8844F400642343B3
:1055980013438A8913439BB28383F0BD00380240CA
:1055A80000127A000023038043808380C380038134
:1055B80043818381C381072303827047002302222A
:1055C800038043808380C38082608381704703881F
:1055D80019B19BB243F0400303E023F040031B04DE
:1055E8001B0C03807047838B19B19BB243F4806313
:1055F80003E023F480631B041B0C83837047038838
:1056080023F400631B041B0C038003889BB219431B
:10561800018070470388B1F5804F15BF23F480439C
:105628009BB21B0443F4804318BF1B0C03807047D4
:105638004FF6FF63994203880BBF23F480739BB234
:105648001B0443F4807308BF1B0C038070478388D6
:1056580019B19BB243F0040303E023F004031B04D5
:105668001B0C83807047838819B19BB243F01003E9
:1056780003E023F010031B041B0C83807047838B0B
:1056880023F47B6323F00F031B0430B51B0C0C8839
:1056980083830223038424F40074828B8B88A4B24E
:1056A800002C4C8892B242EA040242F4006243EAB7
:1056B80002038A8943EA02030CBF4FF48075002570
:1056C8009BB22B43838330BD808980B27047818130
:1056D8007047038819B19BB243F4005303E023F4E5
:1056E80000531B041B0C0380704703889BB243F4D0
:1056F800805303807047012914BF008B808A80B2D1
:105708007047008A80B2704783889BB20AB11943F8
:1057180001E023EA0101818070470123090903FAA6
:1057280001F1838889B29BB20AB1194301E023EAE7
:105738000101818070470389194214BF01200020AC
:105748007047C94389B20181704710B584880389BD
:10575800012201F00F009BB202FA00F01840A4B237
:1057680005D009098A40144214BF0120002010BD49
:1057780001F00F01012303FA01F1C94389B2018144
:10578800704700BF08B5304B984206D10121084642
:10579800FEF7EEF80021012050E02C4B984206D18C
:1057A80001210220FEF7E4F80021022046E0284B00
:1057B800984206D101210420FEF7DAF800210420DE
:1057C8003CE0244B984206D101210820FEF7D0F88E
:1057D8000021082032E0204B984206D101211020F8
:1057E800FEF7C6F80021102028E01C4B984206D18D
:1057F80001212020FEF7BCF8002120201EE0184BD4
:10580800984206D101214020FEF7B2F8002140203D
:1058180014E0144B984206D101218020FEF7A8F825
:10582800002180200AE0104B98420BD101214FF44F
:105838008070FEF79DF800214FF48070BDE80840A5
:10584800FEF796B808BD00BF000002400004024001
:1058580000080240000C0240001002400014024000
:1058680000180240001C0240002002402DE9F043CD
:105878000F6800234FF0010E03260EFA03FC3CEAE2
:10588800070230D15A00056806FA02F4E4432540BD
:1058980005600D79D0F8008005FA02F9013D49EA62
:1058A8000808012DC0F8008011D885682C40846054
:1058B8004C798568944025438560446824EA0C0443
:1058C80044608C7945689C40A4B22C434460C46809
:1058D80006FA02F524EA0504C460CD79C46805FA1D
:1058E80002F22243C2600133102BC6D1BDE8F08317
:1058F8004FF6FF7303600023037143718371C37113
:10590800704782B04FF480330193019B0B4301939E
:10591800019BC361C161019BC361C3690193C369F1
:10592800019302B070470369194214BF0120002097
:105938007047006980B270474369194214BF01205B
:1059480000207047406980B27047018370474183E7
:1059580070470AB1018370474183704741617047BE
:10596800436959404161704701F00703C90800EBDA
:10597800810010B59B00046A0F21994024EA0101B7
:105988000162016A9A400A43026210BD014B01227A
:105998009A60704700300240014B186018687047E1
:1059A80000300240054B00EB8101884203D050F8DB
:1059B800042B1A60F9E7014B186870470030024061
:1059C800014B1868704700BF00300240014B187146
:1059D800704700BF00300240014B1879704700BF84
:1059E80000300240036823F00103036000230360D2
:1059F80043608360C360036121234361294B98425C
:105A080017D0294B98421BD0284B984220D0284BBE
:105A1800984225D0274B98422AD0274B98422ED01F
:105A2800264B984232D0264B984236D0254B984286
:105A380003D13D2243F8082C7047234B984204D1E8
:105A48004FF4746243F8202C7047204B984204D1DD
:105A58004FF4741243F8382C70471D4B984204D108
:105A68004FF0746243F8502C70471A4B984203D198
:105A7800194A43F8642C7047184B984203D1184AC6
:105A880043F87C2C7047174B984203D1164A43F8C9
:105A9800942C7047154B984203D14FF03D5243F870
:105AA800AC2C704710600240286002404060024001
:105AB800586002407060024088600240A060024066
:105AC800B86002401064024028640240406402400A
